{
  "contractName": "TicketContract",
  "abi": [
    {
      "inputs": [],
      "name": "ticketCount",
      "outputs": [
        {
          "internalType": "uint256",
          "name": "",
          "type": "uint256"
        }
      ],
      "stateMutability": "view",
      "type": "function",
      "constant": true
    },
    {
      "inputs": [
        {
          "internalType": "uint256",
          "name": "",
          "type": "uint256"
        }
      ],
      "name": "ticketsPerUser",
      "outputs": [
        {
          "internalType": "uint256",
          "name": "_id",
          "type": "uint256"
        },
        {
          "internalType": "enum TicketContract.TicketStatus",
          "name": "ticket",
          "type": "uint8"
        },
        {
          "internalType": "string",
          "name": "_userName",
          "type": "string"
        },
        {
          "internalType": "string",
          "name": "_type",
          "type": "string"
        }
      ],
      "stateMutability": "view",
      "type": "function",
      "constant": true
    },
    {
      "inputs": [
        {
          "internalType": "string",
          "name": "_userName",
          "type": "string"
        },
        {
          "internalType": "string",
          "name": "_type",
          "type": "string"
        }
      ],
      "name": "addTicket",
      "outputs": [],
      "stateMutability": "nonpayable",
      "type": "function"
    },
    {
      "inputs": [
        {
          "internalType": "uint256",
          "name": "_tId",
          "type": "uint256"
        }
      ],
      "name": "pending",
      "outputs": [],
      "stateMutability": "nonpayable",
      "type": "function"
    },
    {
      "inputs": [
        {
          "internalType": "uint256",
          "name": "_tId",
          "type": "uint256"
        }
      ],
      "name": "isPending",
      "outputs": [
        {
          "internalType": "bool",
          "name": "",
          "type": "bool"
        }
      ],
      "stateMutability": "view",
      "type": "function",
      "constant": true
    },
    {
      "inputs": [
        {
          "internalType": "uint256",
          "name": "_tId",
          "type": "uint256"
        }
      ],
      "name": "accept",
      "outputs": [],
      "stateMutability": "nonpayable",
      "type": "function"
    },
    {
      "inputs": [
        {
          "internalType": "uint256",
          "name": "_tId",
          "type": "uint256"
        }
      ],
      "name": "isAccepted",
      "outputs": [
        {
          "internalType": "bool",
          "name": "",
          "type": "bool"
        }
      ],
      "stateMutability": "view",
      "type": "function",
      "constant": true
    },
    {
      "inputs": [
        {
          "internalType": "uint256",
          "name": "_tId",
          "type": "uint256"
        }
      ],
      "name": "decline",
      "outputs": [],
      "stateMutability": "nonpayable",
      "type": "function"
    },
    {
      "inputs": [
        {
          "internalType": "uint256",
          "name": "_tId",
          "type": "uint256"
        }
      ],
      "name": "isDeclined",
      "outputs": [
        {
          "internalType": "bool",
          "name": "",
          "type": "bool"
        }
      ],
      "stateMutability": "view",
      "type": "function",
      "constant": true
    },
    {
      "inputs": [
        {
          "internalType": "uint256",
          "name": "_tId",
          "type": "uint256"
        }
      ],
      "name": "conclude",
      "outputs": [],
      "stateMutability": "nonpayable",
      "type": "function"
    },
    {
      "inputs": [
        {
          "internalType": "uint256",
          "name": "_tId",
          "type": "uint256"
        }
      ],
      "name": "isConcluded",
      "outputs": [
        {
          "internalType": "bool",
          "name": "",
          "type": "bool"
        }
      ],
      "stateMutability": "view",
      "type": "function",
      "constant": true
    }
  ],
  "bytecode": "0x6080604052600060015534801561001557600080fd5b50610e48806100256000396000f3fe608060405234801561001057600080fd5b50600436106100a95760003560e01c80637b0a1810116100715780637b0a1810146101625780637dd09b2714610195578063a0355f4e146101c5578063af6e6238146101e1578063ca8836d2146101fd578063cfbd900f1461022d576100a9565b806308d890cf146100ae57806319b05f49146100de57806329bc3b85146100fa5780633487b2561461012a5780636a337c5b14610146575b600080fd5b6100c860048036038101906100c39190610712565b61024b565b6040516100d5919061075a565b60405180910390f35b6100f860048036038101906100f39190610712565b61029d565b005b610114600480360381019061010f9190610712565b6102de565b604051610121919061075a565b60405180910390f35b610144600480360381019061013f9190610712565b610331565b005b610160600480360381019061015b91906108bb565b610372565b005b61017c60048036038101906101779190610712565b610433565b60405161018c9493929190610a41565b60405180910390f35b6101af60048036038101906101aa9190610712565b610580565b6040516101bc919061075a565b60405180910390f35b6101df60048036038101906101da9190610712565b6105d3565b005b6101fb60048036038101906101f69190610712565b610614565b005b61021760048036038101906102129190610712565b610655565b604051610224919061075a565b60405180910390f35b6102356106a7565b6040516102429190610a94565b60405180910390f35b60006003808111156102605761025f610942565b5b60008084815260200190815260200160002060010160009054906101000a900460ff16600381111561029557610294610942565b5b149050919050565b600160008083815260200190815260200160002060010160006101000a81548160ff021916908360038111156102d6576102d5610942565b5b021790555050565b6000600160038111156102f4576102f3610942565b5b60008084815260200190815260200160002060010160009054906101000a900460ff16600381111561032957610328610942565b5b149050919050565b600360008083815260200190815260200160002060010160006101000a81548160ff0219169083600381111561036a57610369610942565b5b021790555050565b600061037c6106ad565b604051806080016040528060015481526020018260038111156103a2576103a1610942565b5b81526020018481526020018381525060008060015481526020019081526020016000206000820151816000015560208201518160010160006101000a81548160ff021916908360038111156103fa576103f9610942565b5b021790555060408201518160020190816104149190610cbb565b50606082015181600301908161042a9190610cbb565b50905050505050565b60006020528060005260406000206000915090508060000154908060010160009054906101000a900460ff169080600201805461046f90610ade565b80601f016020809104026020016040519081016040528092919081815260200182805461049b90610ade565b80156104e85780601f106104bd576101008083540402835291602001916104e8565b820191906000526020600020905b8154815290600101906020018083116104cb57829003601f168201915b5050505050908060030180546104fd90610ade565b80601f016020809104026020016040519081016040528092919081815260200182805461052990610ade565b80156105765780601f1061054b57610100808354040283529160200191610576565b820191906000526020600020905b81548152906001019060200180831161055957829003601f168201915b5050505050905084565b60006002600381111561059657610595610942565b5b60008084815260200190815260200160002060010160009054906101000a900460ff1660038111156105cb576105ca610942565b5b149050919050565b600260008083815260200190815260200160002060010160006101000a81548160ff0219169083600381111561060c5761060b610942565b5b021790555050565b600080600083815260200190815260200160002060010160006101000a81548160ff0219169083600381111561064d5761064c610942565b5b021790555050565b600080600381111561066a57610669610942565b5b60008084815260200190815260200160002060010160009054906101000a900460ff16600381111561069f5761069e610942565b5b149050919050565b60015481565b60018060008282546106bf9190610dbc565b92505081905550565b6000604051905090565b600080fd5b600080fd5b6000819050919050565b6106ef816106dc565b81146106fa57600080fd5b50565b60008135905061070c816106e6565b92915050565b600060208284031215610728576107276106d2565b5b6000610736848285016106fd565b91505092915050565b60008115159050919050565b6107548161073f565b82525050565b600060208201905061076f600083018461074b565b92915050565b600080fd5b600080fd5b6000601f19601f8301169050919050565b7f4e487b7100000000000000000000000000000000000000000000000000000000600052604160045260246000fd5b6107c88261077f565b810181811067ffffffffffffffff821117156107e7576107e6610790565b5b80604052505050565b60006107fa6106c8565b905061080682826107bf565b919050565b600067ffffffffffffffff82111561082657610825610790565b5b61082f8261077f565b9050602081019050919050565b82818337600083830152505050565b600061085e6108598461080b565b6107f0565b90508281526020810184848401111561087a5761087961077a565b5b61088584828561083c565b509392505050565b600082601f8301126108a2576108a1610775565b5b81356108b284826020860161084b565b91505092915050565b600080604083850312156108d2576108d16106d2565b5b600083013567ffffffffffffffff8111156108f0576108ef6106d7565b5b6108fc8582860161088d565b925050602083013567ffffffffffffffff81111561091d5761091c6106d7565b5b6109298582860161088d565b9150509250929050565b61093c816106dc565b82525050565b7f4e487b7100000000000000000000000000000000000000000000000000000000600052602160045260246000fd5b6004811061098257610981610942565b5b50565b600081905061099382610971565b919050565b60006109a382610985565b9050919050565b6109b381610998565b82525050565b600081519050919050565b600082825260208201905092915050565b60005b838110156109f35780820151818401526020810190506109d8565b83811115610a02576000848401525b50505050565b6000610a13826109b9565b610a1d81856109c4565b9350610a2d8185602086016109d5565b610a368161077f565b840191505092915050565b6000608082019050610a566000830187610933565b610a6360208301866109aa565b8181036040830152610a758185610a08565b90508181036060830152610a898184610a08565b905095945050505050565b6000602082019050610aa96000830184610933565b92915050565b7f4e487b7100000000000000000000000000000000000000000000000000000000600052602260045260246000fd5b60006002820490506001821680610af657607f821691505b602082108103610b0957610b08610aaf565b5b50919050565b60008190508160005260206000209050919050565b60006020601f8301049050919050565b600082821b905092915050565b600060088302610b717fffffffffffffffffffffffffffffffffffffffffffffffffffffffffffffffff82610b34565b610b7b8683610b34565b95508019841693508086168417925050509392505050565b6000819050919050565b6000610bb8610bb3610bae846106dc565b610b93565b6106dc565b9050919050565b6000819050919050565b610bd283610b9d565b610be6610bde82610bbf565b848454610b41565b825550505050565b600090565b610bfb610bee565b610c06818484610bc9565b505050565b5b81811015610c2a57610c1f600082610bf3565b600181019050610c0c565b5050565b601f821115610c6f57610c4081610b0f565b610c4984610b24565b81016020851015610c58578190505b610c6c610c6485610b24565b830182610c0b565b50505b505050565b600082821c905092915050565b6000610c9260001984600802610c74565b1980831691505092915050565b6000610cab8383610c81565b9150826002028217905092915050565b610cc4826109b9565b67ffffffffffffffff811115610cdd57610cdc610790565b5b610ce78254610ade565b610cf2828285610c2e565b600060209050601f831160018114610d255760008415610d13578287015190505b610d1d8582610c9f565b865550610d85565b601f198416610d3386610b0f565b60005b82811015610d5b57848901518255600182019150602085019450602081019050610d36565b86831015610d785784890151610d74601f891682610c81565b8355505b6001600288020188555050505b505050505050565b7f4e487b7100000000000000000000000000000000000000000000000000000000600052601160045260246000fd5b6000610dc7826106dc565b9150610dd2836106dc565b9250827fffffffffffffffffffffffffffffffffffffffffffffffffffffffffffffffff03821115610e0757610e06610d8d565b5b82820190509291505056fea26469706673582212200327cc3bb628d52416a516acf4d5ef1f368cdb045412bd5ab2f39d27f2dfb2fc64736f6c634300080f0033",
  "immutableReferences": {},
  "source": "// SPDX-License-Identifier: MIT\npragma solidity >=0.4.22 <0.9.0;\n\ncontract TicketContract{\n\n    enum  TicketStatus { \n        Pending, \n        Accepted, \n        Declined, \n        Concluded \n    }\n\n    //Ticket[] private ticketsPerUser; \n\n    // example of mapping\n    mapping(uint => Ticket) public ticketsPerUser;\n    uint256 public ticketCount = 0;\n\n    //address owner;\n\n    /*modifier onlyOwner(){\n        require(msg.sender == owner);\n        _;\n    }*/\n\n    struct Ticket{\n        uint _id;\n        TicketStatus ticket;\n        string _userName;\n        //string _url;\n        string _type;\n    }\n\n    /*constructor() public {\n        owner = msg.sender;\n    }*/\n\n    // how to instance struct\n    //Ticket tPerUser = Ticket(TicketStatus.Pending, \"user\", \"default\");\n\n\n    // update info and THEN add to array\n\n    function addTicket(string memory _userName, string memory _type) public{\n        // aqui tens de colocar uma nova instacia para a estrutura pq senao sempre adicionara o tPerUser que  \"\"\"imutavel\"\"\"\n        TicketStatus ticket = TicketStatus.Pending;\n        incrementCount();\n        ticketsPerUser[ticketCount] = Ticket(ticketCount, ticket, _userName, _type);\n\n    }\n    // auto-increment ticket id\n    function incrementCount() internal{\n        ticketCount += 1;\n    }\n\n    // mapping with ticket id\n\n\n    function pending(uint _tId) public {\n \n        ticketsPerUser[_tId].ticket = TicketStatus.Pending; \n    }\n\n    function isPending(uint _tId) public view returns(bool){\n  \n            return ticketsPerUser[_tId].ticket == TicketStatus.Pending;\n    }\n\n    function accept(uint _tId) public {\n\n            ticketsPerUser[_tId].ticket = TicketStatus.Accepted;   \n    }\n\n    function isAccepted(uint _tId) public view returns(bool){\n\n            return ticketsPerUser[_tId].ticket == TicketStatus.Accepted;      \n    }\n\n    function decline(uint _tId) public {\n\n            ticketsPerUser[_tId].ticket = TicketStatus.Declined;     \n    }\n\n    function isDeclined(uint _tId) public view returns(bool){\n\n            return ticketsPerUser[_tId].ticket == TicketStatus.Declined;   \n    }\n\n    function conclude(uint _tId) public {\n\n            ticketsPerUser[_tId].ticket = TicketStatus.Concluded;     \n    }\n\n    function isConcluded(uint _tId) public view returns(bool){\n\n        return ticketsPerUser[_tId].ticket == TicketStatus.Concluded;   \n    }\n}",
  "sourcePath": "/Users/amandamenezes/Documents/GitHub/Project_VF#project_vf/contracts/TicketContract.sol",
  "compiler": {
    "name": "solc",
    "version": "0.8.15+commit.e14f2714.Emscripten.clang"
  },
  "schemaVersion": "3.4.8",
  "updatedAt": "2022-08-11T09:18:45.568Z",
  "networkType": "ethereum",
  "devdoc": {
    "kind": "dev",
    "methods": {},
    "version": 1
  },
  "userdoc": {
    "kind": "user",
    "methods": {},
    "version": 1
  }
}